:020000021000EC
:10FC000001C0E2C01F92CDB7DEB7112484B78823AC
:10FC100049F0982F9A70923029F081FF02C097EF37
:10FC200094BF0AD185E08093810082E08093C00078
:10FC300088E18093C10086E08093C20080E18093D8
:10FC4000C4008EE0E4D0279A26E080E39CEF31E008
:10FC5000909385008093840036BBB09BFECF1F9AA3
:10FC6000A8952150A9F7812C912CC5D08134D1F4CD
:10FC7000C2D08983D2D08981823811F482E010C049
:10FC8000813869F486E00CC0843709F473C0853785
:10FC900009F092C0C2D08EE1A7D087E9A5D083E059
:10FCA000A3D08FC0823411F484E103C0853419F4E9
:10FCB00085E0BBD086C0853569F49DD0882E9BD069
:10FCC000912C982A892D881F8827881F8BBF880C24
:10FCD000991C76C0863521F484E0A7D080E0E0CF7F
:10FCE000843691F688D0E82EF12CFE2CEE2483D0B9
:10FCF000E82A81D0B82E8701C12C32E0D32E7BD0E8
:10FD0000F60181936F0101501109C9F786D0F5E41E
:10FD1000BF1212C0E80CF91C8401C12C92E0D92E4C
:10FD20000E151F0509F44DC0F60161916F01C80160
:10FD300091D00F5F1F4FF4CF40E050E063E0C4016B
:10FD400043D000E010E0F801FE5F408131968081F1
:10FD500050E0582B61E0C801880D991D35D00E5F29
:10FD60001F4FE016F10679F740E050E065E0C4016E
:10FD70002BD027C040D0082F10E0102F00273BD0F9
:10FD8000082B39D0898349D089817401853461F485
:10FD9000C70158D029D001501109FFEFEF1AFF0A0F
:10FDA00001151105A9F70DC0F70187917F011CD03E
:10FDB00001501109C9F705C0813511F488E027D039
:10FDC0002CD080E111D051CFFC010A0167BFE8952A
:10FDD000112407B600FCFDCF667029F0452B19F4FD
:10FDE00081E187BFE89508959091C00095FFFCCF11
:10FDF0008093C60008958091C00087FFFCCF80915A
:10FE0000C00084FD01C0A8958091C6000895E0E679
:10FE1000F0E098E1908380830895EDDF803219F05F
:10FE200088E0F5DFFFCF84E1DFCFCF93C82FE3DF9A
:10FE3000C150E9F7CF91F1CF282E80E0E8DFE0E074
:10FE4000FF270994F999FECF92BD81BDF89A9927B1
:10FE500080B50895262FF999FECF1FBA92BD81BDB6
:10FE600020BD0FB6F894FA9AF99A0FBE019608953C
:02FFFE000206F9
:040000031000FC00ED
:00000001FF
